:020000040800F2
:10000000004000201D250008392300083B2300087C
:100010003D2300083F2300084123000800000000A2
:100020000000000000000000000000004323000862
:10003000452300080000000047230008492300086A
:100040006525000865250008652500086525000868
:100050006525000865250008652500086525000858
:10006000512300086525000865250008652500085E
:100070006525000865250008652500086525000838
:100080006525000865250008652500086525000828
:100090006525000865250008652500086525000818
:1000A0006525000865250008652500086525000808
:1000B00065250008652500086525000865250008F8
:1000C00065250008652500086525000865250008E8
:1000D00065250008652500086525000865250008D8
:1000E00065250008652500086525000865250008C8
:1000F000652500080000000000000000000000006E
:1001000000000000000000000000000000000000EF
:1001100000000000000000000000000000000000DF
:1001200000000000000000000000000000000000CF
:0C01300000000000000000005FF808F173
:10013C0010B5054C237833B9044B13B10448AFF315
:10014C0000800123237010BD70000020000000000F
:10015C00F02D000808B5034B1BB103490348AFF35E
:10016C00008008BD0000000074000020F02D000885
:10017C00034613F8012B002AFBD1181A01387047DB
:10018C00104B1B680BB90120704710B504464FF497
:10019C007A70B0FBF3F30C4A1068B0FBF3F000F08C
:1001AC009FF868B90F2C01D901200AE000222146E2
:1001BC004FF0FF3000F052F8024B5C60002000E082
:1001CC00012010BD000000200800002010B5032005
:1001DC0000F032F80020FFF7D3FF10B101242046C5
:1001EC0010BD044602F080F8F9E70000034A1368DA
:1001FC00034909680B441360704700BF9C00002042
:10020C0000000020014B1868704700BF9C000020C4
:10021C0038B50446FFF7F6FF0546B4F1FF3F02D0B0
:10022C00044B1B681C44FFF7EDFF401BA042FAD3A4
:10023C0038BD00BF00000020074AD36823F4E063F8
:10024C001B041B0C000200F4E060184340F0BF607C
:10025C0040F40030D060704700ED00E030B4174B34
:10026C00DB68C3F30223C3F10704042C28BF042466
:10027C001D1D062D18D9033B4FF0FF3505FA04F46C
:10028C0021EA0401994005FA03F322EA0303194316
:10029C0000280BDB0901C9B200F1604000F5614098
:1002AC0080F8001330BC70470023E5E700F00F0026
:1002BC000901C9B2024B1954F4E700BF00ED00E08C
:1002CC0014ED00E0002807DB00F01F0240090123B9
:1002DC009340024A42F82030704700BF00E100E032
:1002EC000138B0F1807F0AD2064B5860064AF021E3
:1002FC0082F823100020986007221A6070470120B2
:10030C00704700BF10E000E000ED00E0F0B482B0F8
:10031C00002336E0042400E00024B4403C430235C2
:10032C005B4E46F825405B4C2568D44304EA050631
:10033C004F6817F4803F01D042EA0506554D2E60F8
:10034C006D6804EA05064F6817F4003F01D042EAD5
:10035C000506504D6E60AD6804EA05064F6817F44B
:10036C00801F01D042EA05064A4DAE60ED682C4074
:10037C004E6816F4001F01D042EA0504454AD460C9
:10038C0001330A6832FA03F47FD001249C402240E6
:10039C00F6D04D68022D01D0122D10D1DE08083692
:1003AC0050F826C003F00705AF000F25BD402CEA1E
:1003BC00050C0D69BD4045EA0C0540F82650066851
:1003CC005F000325BD40ED4305EA060C4E6806F0C0
:1003DC000306BE4046EA0C0606604E6806F1FF3C7A
:1003EC00BCF1010F03D9112E01D0122E10D1866849
:1003FC0005EA060CCE68BE4046EA0C0686604668E6
:10040C0026EA04044E68C6F300169E402643466056
:10041C00C46825408C68BC402C43C4604C6814F004
:10042C00805FADD01C4C256A45F001052562246A1D
:10043C0004F001040194019C9D08AE1C144C54F86A
:10044C00267003F00304A6000F24B44027EA040727
:10045C00124CA0423FF460AF04F58064A0420ED071
:10046C0004F58064A0420CD004F58064A0420AD04C
:10047C0004F58064A0423FF44DAF05244DE7012400
:10048C004BE7022449E7032447E702B0F0BC70476E
:10049C00000001400004014000380240000002400E
:1004AC0012B90904816170478161704708B5054B29
:1004BC005B69034200D108BD024B586101F014FC8A
:1004CC00F9E700BF0004014082B0214B9B6813F098
:1004DC00F00F2CD11E4B5B6A13F0805F08D01D4BC4
:1004EC001B6803F4C053B3F5C05F14D000211FE0A8
:1004FC00174A536A43F080535362536A03F0805394
:10050C000193019B134B1B6803F4C053516A21F0F8
:10051C0080515162E7E7B0F5404F01D0002107E070
:10052C000D4A136843F004031360012100E000211D
:10053C00094A136823F001030B431360136803F09B
:10054C0001038B4202D0012002B070470020FBE770
:10055C000038024000700040003C0240002800F0CF
:10056C006082F0B583B00446A04B9D6805F00C0585
:10057C009E6806F48036036813F0010F1DD0082D19
:10058C0012D00C2D0ED06368012B35D0002B49D125
:10059C00964B1A6822F480321A601A6822F4802270
:1005AC001A602EE0002EEED0904B1B6813F4003F27
:1005BC0003D06368002B00F03782236813F0020F1E
:1005CC0069D0042D55D00C2D51D0E368002B00F0D0
:1005DC00AC80874B01221A60FFF714FE0646834B52
:1005EC001B6813F0020F40F09780FFF70BFE801B87
:1005FC000228F4D903231EE27C4A136843F48033A7
:10060C001360636823B3FFF7FDFD0746774B1B6848
:10061C0013F4003FD1D1FFF7F5FDC01B6428F5D9C9
:10062C00032308E2052B09D0704B1A6822F48032A0
:10063C001A601A6822F480221A60E2E76B4B1A687F
:10064C0042F480221A601A6842F480321A60D8E7A9
:10065C00FFF7D8FD0746654B1B6813F4003FACD081
:10066C00FFF7D0FDC01B6428F5D90323E3E1002E6E
:10067C00ABD15E4B1B6813F0020F04D0E368012B67
:10068C0001D00123D7E1594A536823F4F853216967
:10069C0043EA01235360236813F0100F00F08E809F
:1006AC00002D68D1514B1B6813F4007F03D0A36954
:1006BC00002B00F0BB81206A4C4B5B6803F4604359
:1006CC00984244D9FFF700FF002840F0B181474A17
:1006DC00536823F46043216A0B435360536823F03F
:1006EC007F43E16943EA01635360236A5B0B5A1C45
:1006FC004FF4004393403D4A9268C2F303123D49C4
:10070C008A5CD3403C4A13603C4B1868FFF738FDB9
:10071C000346002852D08EE1344A536823F4F85330
:10072C00216943EA01235360B5E7314B00221A607B
:10073C00FFF768FD06462D4B1B6813F0020FAAD07D
:10074C00FFF760FD801B0228F5D9032373E1274ACC
:10075C00536823F4604318435060536823F07F437D
:10076C00E16943EA01635360206AFFF7ADFE00289C
:10077C00BBD001235FE1A369002B45D0204B0122A4
:10078C001A60FFF73FFD0646184B1B6813F4007FF9
:10079C0006D1FFF737FD801B0228F5D903234AE168
:1007AC00124A536823F46043216A0B435360536825
:1007BC0023F07F43E16943EA01635360236813F03C
:1007CC00080F45D063698BB30E4B01221A60FFF7FB
:1007DC0019FD0646054B5B6B13F0020F38D1FFF782
:1007EC0011FD801B0228F5D9032324E100380240B7
:1007FC0000004742242E00080800002004000020BE
:10080C0020004742800647428E4B00221A60FFF7B9
:10081C00F9FC06468C4B1B6813F4007FCED0FFF717
:10082C00F1FC801B0228F5D9032304E1874B00223D
:10083C001A60FFF7E7FC0646834B5B6B13F0020F65
:10084C0006D0FFF7DFFC801B0228F5D90323F2E06A
:10085C00236813F0040F79D07B4B5B6A13F0805F35
:10086C001ED1794B5A6A42F080525A625B6A03F08D
:10087C0080530193019B0126754B1B6813F4807FF9
:10088C0010D0A368012B21D0002B37D16E4B5A6BA3
:10089C0022F480725A635A6B22F480625A631AE013
:1008AC000026E9E76A4A136843F480731360FFF784
:1008BC00A9FC0746664B1B6813F4807FE1D1FFF758
:1008CC00A1FCC01B6428F5D90323B4E05E4A536B2A
:1008DC0043F480735363A36833B3FFF793FC074669
:1008EC00594B5B6B13F4007F2FD1FFF78BFCC01BB4
:1008FC0041F288339842F3D903239CE0052B09D0AD
:10090C00514B5A6B22F480725A635A6B22F48062F8
:10091C005A63E0E74C4B5A6B42F480625A635A6B51
:10092C0042F480725A63D6E7FFF76CFC0746464BDD
:10093C005B6B13F4007F08D0FFF764FCC01B41F223
:10094C0088339842F3D9032375E0C6B9636A002B48
:10095C0070D00C2D4CD0022B17D03E4B00221A60BD
:10096C00FFF750FC0446384B1B6813F0007F3DD05A
:10097C00FFF748FC001B0228F5D903235BE0324A41
:10098C00536A23F080535362E0E7324B00221A6023
:10099C00FFF738FC05462C4B1B6813F0007F06D084
:1009AC00FFF730FC401B0228F5D9032343E026490E
:1009BC008B6823F47D03A26AE06A0243206B024336
:1009CC0013438B60234B01221A60FFF71BFC044678
:1009DC001D4B1B6813F0007F06D1FFF713FC001BA7
:1009EC000228F5D9032326E0002324E0002322E08B
:1009FC00012B23D0144B9B6803F48031A26A9142E3
:100A0C0001D0012317E003F47012E16A8A4201D08D
:100A1C00012310E003F44003226B934210D0012316
:100A2C0009E0012318467047012304E0012302E08A
:100A3C00012300E00023184603B0F0BD0123FAE7C0
:100A4C000023F8E720004742003802408006474266
:100A5C000070004060004742174B986800F00C0291
:100A6C00082A26D00C2A0CD0042A08D0124B58681D
:100A7C00C0F34230431C4FF40040984070470F487D
:100A8C007047C0F383420E498A5CC0F38150013039
:100A9C00094B9B6813F4803F05D00A4B03FB02F310
:100AAC00B3FBF0F07047054B03FB02F3B3FBF0F024
:100ABC0070470448704700BF003802400024F4001F
:100ACC00182E000800127A00002800F0DC8070B5A7
:100ADC0004466F4A126802F001028A4214D20129BC
:100AEC000CD06B48026822F001020A4302600268D3
:100AFC0002F001028A4207D0012070BD64480268EE
:100B0C0042F004020260ECE7226812F0020F06D0F9
:100B1C006048826822F0F002A3681A4382600D4696
:100B2C00236813F0010F6CD06368022B0AD0032BDF
:100B3C002CD0012B31D0574A126812F4007F07D108
:100B4C000120DAE7534A126812F4003F00F09D804E
:100B5C0050498A6822F0030213438B60FFF752FB63
:100B6C0006466368022B1FD0032B2CD0012B39D0E7
:100B7C00484B9B6813F00C0F43D0FFF743FB801BD3
:100B8C0041F288339842F3D90320B6E7414A126800
:100B9C0012F0007FDCD10120AFE73E4A126812F060
:100BAC00020FD5D10120A8E73A4B9B6803F00C0348
:100BBC00082B26D0FFF726FB801B41F28833984286
:100BCC00F2D9032099E7334B9B6803F00C030C2BF1
:100BDC0017D0FFF717FB801B41F288339842F2D9EC
:100BEC0003208AE72B4B9B6803F00C03042B08D0E3
:100BFC00FFF708FB801B41F288339842F2D903209F
:100C0C007BE7234B1B6803F00103AB4214D9012D86
:100C1C000CD01F4A136823F001032B431360136895
:100C2C0003F00103AB4207D0012066E7184A1368B2
:100C3C0043F004031360ECE7236813F0040F06D0B1
:100C4C00144A936823F4E063E1680B4393602368D0
:100C5C0013F0080F07D00F4A936823F460532169EF
:100C6C0043EAC1039360FFF7F7FE0A4B9B68C3F39B
:100C7C000313094AD35CD840084B1860084B18681A
:100C8C00FFF77EFA39E701207047012035E700BFF6
:100C9C00003C024000380240242E000808000020CE
:100CAC0004000020014B1868704700BF08000020AA
:100CBC0008B5FFF7F7FF044B9B68C3F30223034A05
:100CCC00D35CD84008BD00BF00380240342E000869
:100CDC0008B5FFF7E7FF044B9B68C3F3C223034A35
:100CEC00D35CD84008BD00BF00380240342E000849
:100CFC00F8B505460F4616461C462B689B6837EA26
:100D0C0003030CBF01230023B34237D0B4F1FF3FE0
:100D1C00F3D0FFF777FA069BC01AA04201D2002C41
:100D2C00EBD12A68536823F0E00353606B68B3F58A
:100D3C00827F0BD0AB6AB3F5005F14D0012385F82A
:100D4C005130002385F85030032018E0AB68B3F520
:100D5C00004F02D0B3F5806FECD12A68136823F0F2
:100D6C0040031360E6E72A68136823F4005313600A
:100D7C002A68136843F400531360DFE70020F8BDC2
:100D8C0010B582B004464068B0F5827F08D094F864
:100D9C005100C0B2052813D00023184602B010BD74
:100DAC0000920B46002280212046FFF7A1FF03464C
:100DBC000028F2D0636D43F0200363650323ECE756
:100DCC0000920B46002201212046FFF791FF0346BB
:100DDC000028E2D0636D43F0200363650323DCE756
:100DEC0010B582B004464068B0F5827F16D06068BA
:100DFC00B0F5827F2ED1A368B3F5806F1BD0009223
:100E0C000B46002280212046FFF772FF034650B3A9
:100E1C00636D43F020036365032324E0A368B3F5FB
:100E2C00004F02D0B3F5806FE1D12068036823F046
:100E3C0040030360DBE700920B46002201212046B1
:100E4C00FFF756FF034670B1636D43F020036365F3
:100E5C00032308E000920B46002201212046FFF7F5
:100E6C0047FF034610B9184602B010BD636D43F03E
:100E7C00200363650323F6E7002833D010B504463E
:100E8C000023836290F851303BB3022384F8513035
:100E9C002268136823F0400313606368A26813434D
:100EAC00E26813432269134362691343A26902F493
:100EBC0000721343E2691343226A1343A16A226846
:100ECC000B431360638B226803F004035360002010
:100EDC006065012384F8513010BD80F8503001F06A
:100EEC00CFF9D2E7012070472DE9F04182B090F89C
:100EFC005040012C00F0C3801D461746884604461E
:100F0C00012380F85030FFF77DF9064694F85130F4
:100F1C00DBB2012B09D00220012384F851300023CD
:100F2C0084F8503002B0BDE8F081B8F1000F00F049
:100F3C009880002F00F09780032384F85130002311
:100F4C006365C4F83080A786E786A363A387E3872D
:100F5C0063642364A368B3F5004F1CD023681A683C
:100F6C0012F0400F03D11A6842F040021A60E36895
:100F7C00B3F5006F15D063680BB1012F49D1226B0B
:100F8C00236812781A73236B01332363E38E013BBE
:100F9C009BB2E3863DE02268136843F48043136000
:100FAC00DCE763680BB1012F15D1226B2368128823
:100FBC00DA60236B02332363E38E013B9BB2E3863F
:100FCC0009E0FFF71FF9801BA84202D3B5F1FF3FE0
:100FDC004BD1002D4BD0E38E9BB2002B2CD0236831
:100FEC009A6812F0020FECD0226B1288DA60236B35
:100FFC0002332363E38E013B9BB2E386EBE7FFF7FF
:10100C0001F9801BA84202D3B5F1FF3F31D1002D6D
:10101C0031D0E38E9BB27BB123689A6812F0020F39
:10102C00EDD0226B12781A73236B01332363E38E9A
:10103C00013B9BB2E386ECE7324629462046FFF79C
:10104C009FFE08B120236365A36833B9019323681D
:10105C00DA6801929B680193019B636D6BB9002068
:10106C005AE7012058E7012056E7032054E70320F4
:10107C0052E7032050E703204EE701204CE7022003
:10108C0050E72DE9F04383B0DDF8288090F850400C
:10109C00012C00F00B811D4617460E460446012319
:1010AC0080F85030FFF7AEF8814694F85100C0B28A
:1010BC006368012815D0B3F5827F0AD00223012280
:1010CC0084F85120002284F85020184603B0BDE863
:1010DC00F083A368002B40F0DB80042801D00223AE
:1010EC00EDE7002E00F0D680002F00F0D580002D0B
:1010FC0000F0D48094F85130DBB2042B02D00523DD
:10110C0084F8513000236365A763E587A5872663C0
:10111C00E586A5862364636423681A6812F0400F81
:10112C0003D11A6842F040021A60E368B3F5006F0D
:10113C0010D063680BB1012D0AD1226B2368127891
:10114C001A73236B01332363E38E013B9BB2E3865B
:10115C00012569E063680BB1012D0AD1226B23686C
:10116C001288DA60236B02332363E38E013B9BB25C
:10117C00E38601251BE023689A6812F0010F0DD05D
:10118C00E28F92B252B1DA68A36B1A80A36B02336E
:10119C00A363E38F013B9BB2E3870125FFF732F892
:1011AC00A0EB0900404502D3B8F1FF3F78D1E38EA4
:1011BC009BB21BB9E38F9BB2002B52D023689A6869
:1011CC0012F0020FD7D0E28E92B2002AD3D0002DAB
:1011DC00D1D0226B1288DA60236B02332363E38E47
:1011EC00013B9BB2E3860025C5E723689A6812F0A1
:1011FC00010F0DD0E28F92B252B1DA68A36B1A7064
:10120C00A36B0133A363E38F013B9BB2E3870125FF
:10121C00FEF7F8FFA0EB0900404502D3B8F1FF3F01
:10122C0040D1B8F1000F3FD0E38E9BB213B9E38FDE
:10123C009BB2B3B123689A6812F0020FD5D0E28E3C
:10124C0092B2002AD1D0002DCFD0226B12781A7313
:10125C00236B01332363E38E013B9BB2E3860025B2
:10126C00C3E74A4641462046FFF78AFD034618B1BC
:10127C0020236365012322E7A268002A7FF41FAFB5
:10128C0001922268D168019192680192019A16E745
:10129C00022314E7012312E7012310E701230EE7D1
:1012AC0003230CE703230AE7032308E702230CE7D5
:1012BC002DE9F04182B004460F4690461D46436826
:1012CC00B3F5827F19D094F85030012B00F09F8039
:1012DC00012384F85030FEF795FF064694F8513000
:1012EC00DBB2012B15D00220012384F851300023EE
:1012FC0084F8503002B0BDE8F0818368002BE2D155
:10130C00042380F85130009513460A46FFF7B9FEC6
:10131C00F0E7002F6DD0B8F1000F6CD0042384F8E7
:10132C00513000236365A763A4F83C80A4F83E8089
:10133C002363A386E38623646364A368B3F5004F39
:10134C000BD023681A6812F0400F03D11A6842F0D0
:10135C0040021A60E36883B12CE02268136823F41E
:10136C0080431360EDE7FEF74DFF801BA84202D3CC
:10137C00B5F1FF3F41D1002D41D0E38F9BB2002B43
:10138C002BD023689A6812F0010FECD0A26B1B7B58
:10139C001370A36B0133A363E38F013B9BB2E38711
:1013AC00EBE7FEF72FFF801BA84202D3B5F1FF3FFE
:1013BC0027D145B3E38F9BB27BB123689A6812F0B7
:1013CC00010FEED0DA68A36B1A80A36B0233A36310
:1013DC00E38F013B9BB2E387ECE73246294620467C
:1013EC00FFF7FEFC08B120236365636D6BB9002029
:1013FC007AE7012078E7012076E7032074E70320E1
:10140C0072E7032070E703206EE701206CE70220EF
:10141C0070E700000368B0F1804F06D0184A904284
:10142C0003D002F58062904203D123F070034A6826
:10143C001343B0F1804F12D0114A90420FD002F5F5
:10144C00806290420BD002F58032904207D002F5B8
:10145C008062904203D002F58062904203D123F463
:10146C004073CA68134323F080030A691343036073
:10147C008B68C3620B68836201234361704700BFB2
:10148C000004004010B4036A046A24F001040462EE
:10149C00846924F0F00444EA021223F00A030B439B
:1014AC008261036210BC704710B4036A23F010030E
:1014BC0003628469036A24F4704444EA023223F020
:1014CC00A00343EA01138261036210BC7047836876
:1014DC0023F07003194341F007018160704710B489
:1014EC00846824F47F4442EA03230B432343836040
:1014FC0010BC7047A8B110B5044690F839305BB1F8
:10150C00022384F83930211D2068FFF783FF012363
:10151C0084F83930002010BD80F8383000F092FF8C
:10152C00EEE701207047022380F839300268936897
:10153C0003F00703062B03D0136843F00103136079
:10154C00012380F839300020704790F83830012B97
:10155C0066D010B50446012380F83830022380F899
:10156C0039300268936823F47F4323F07703936048
:10157C000B68402B4AD013D9602B3DD01ED9702B51
:10158C0028D0B3F5005F30D1CB684A688968006811
:10159C00FFF7A5FF2268936843F48043936024E02F
:1015AC00102B06D004D9202B03D0302B01D01CE0FB
:1015BC00DBB919462068FFF78AFF16E0502B14D1CF
:1015CC00CA6849680068FFF75DFF50212068FFF783
:1015DC007EFF0AE0CB684A6889680068FFF77FFFE6
:1015EC002268936843F077039360012384F83930C1
:1015FC00002084F8380010BDCA6849680068FFF7FD
:10160C0053FF60212068FFF762FFEEE7CA68496864
:10161C000068FFF737FF40212068FFF758FFE4E729
:10162C000220704790F83830012B1CD070B4012682
:10163C0080F83860022380F8393002685568936866
:10164C0025F070050C682C4323F080054B682B4368
:10165C0054600268936080F83960002380F8383059
:10166C00184670BC704702207047000038B504461D
:10167C000268136923F44053C1680B4313618368F8
:10168C000269134342691343C2691A430168CB6868
:10169C0023F4164323F00C031343CB600268536905
:1016AC0023F4407381690B435361C369B3F5004F55
:1016BC0023D00268444B9A4265D0FFF7F9FA00EB4D
:1016CC00800000EB800063689B00B0FBF3F03F4DA3
:1016DC00A5FB00325109642202FB110213013233C3
:1016EC00A5FB03235B0903F0F00202EB011203F0EC
:1016FC000F03216813448B6038BD0268324B9A4249
:10170C0020D0FFF7D5FA00EB800000EB8000636877
:10171C005B00B0FBF3F02D4DA5FB003251096422A8
:10172C0002FB1102D3003233A5FB03235B095A00E1
:10173C0002F4F87202EB011203F007032168134460
:10174C008B60D9E7FFF7C4FA00EB800000EB800058
:10175C0063685B00B0FBF3F01C4DA5FB0032510934
:10176C00642202FB1102D3003233A5FB03235B0975
:10177C005A0002F4F87202EB011203F0070321681D
:10178C0013448B60B8E7FFF7A3FA00EB800000EB83
:10179C00800063689B00B0FBF3F00C4DA5FB00329E
:1017AC005109642202FB110213013233A5FB0323FE
:1017BC005B0903F0F00202EB011203F00F03216846
:1017CC0013448B6098E700BF003801401F85EB5134
:1017DC002DE9F04105460F4616469846069C2B68A7
:1017EC001B6837EA03030CBF01230023B3421DD14E
:1017FC00B4F1FF3FF3D02CB1FEF704FDA0EB0800D1
:10180C00A042ECD92A68D36823F4D073D3602A6839
:10181C00536923F001035361202385F8393085F88F
:10182C003A30002385F83830032000E00020BDE872
:10183C00F08158B310B5044690F839300BB324231B
:10184C0084F839302268D36823F40053D3602046DF
:10185C00FFF70CFF2268136923F49043136122688D
:10186C00536923F02A0353612268D36843F400536D
:10187C00D3600020E063202384F8393084F83A30B8
:10188C0010BD80F8383000F00BFED8E7012070470F
:10189C002DE9F04182B01E4690F83930DBB2202B96
:1018AC0055D104460D469046002955D0002A55D0F6
:1018BC0090F83830012B53D0012380F838300023B6
:1018CC00C363212380F83930FEF79CFC0746A4F84B
:1018DC002480A4F8268010E000963B46002280214C
:1018EC002046FFF775FF00283CD12B882268C3F3F4
:1018FC00080353602369C3B90235E38C9BB2B3B1BF
:10190C00E38C013B9BB2E384A368B3F5805FE3D027
:10191C0000963B46002280212046FFF759FF18BB5A
:10192C002A7823685A600135E7E70135E5E7009628
:10193C003B46002240212046FFF74AFF0346A8B948
:10194C00202284F83920002284F8382000E0022379
:10195C00184602B0BDE8F0810123F9E70123F7E74F
:10196C000223F5E70323F3E70323F1E70323EFE770
:10197C0070B588B0002403940494059406940794DD
:10198C001B4BDA6942F00202DA61DA6902F00202F8
:10199C000192019ADA6942F00102DA61DB6903F023
:1019AC0001030293029B134D22464FF444612846D7
:1019BC00FEF776FD042303930F4B04930126059643
:1019CC0003A92846FEF7A2FC4FF444630393049644
:1019DC000594069403A92846FEF798FC2246214656
:1019EC000820FEF73BFC0820FEF76CFC08B070BD2D
:1019FC0000380240000402400000211030B593B0C2
:101A0C003422002105A800F0D3FD00240094019499
:101A1C00029403940494124A136823F4C05343F4BD
:101A2C000063136002230593012508951022099287
:101A3C000E930F944FF4002310934FF40003119363
:101A4C0005A8FEF78BFD0F2300930323019302944B
:101A5C000394049429466846FFF736F813B030BD5A
:101A6C00007000407047000070B582B08DF8061011
:101A7C0040F0200002AC04F8010D0F4D00224FF491
:101A8C0000612846FEF70CFD0C4E4FF47A730122D0
:101A9C0021463046FFF728FA4FF47A7301220DF1F4
:101AAC0006013046FFF720FA01224FF40061284668
:101ABC00FEF7F6FC02B070BD00040240A40000204A
:101ACC0010B5074C01224FF400612046FEF7E8FCEC
:101ADC0000224FF480612046FEF7E2FC10BD00BFEF
:101AEC000004024030B583B002AC04F8010D0A4D7D
:101AFC0000224FF400612846FEF7D2FCC8230122D5
:101B0C0021460648FFF7F0F901224FF40061284600
:101B1C00FEF7C6FC03B030BD00040240A400002058
:101B2C0010B584B0FF238DF80E300D4C00224FF40D
:101B3C0000612046FEF7B4FC6423009301230DF1F1
:101B4C000F020DF10E010748FFF79BFA01224FF42B
:101B5C0000612046FEF7A4FC9DF80F0004B010BDF8
:101B6C0000040240A4000020F0B587B00C4606AD7E
:101B7C0005F8110D104E00224FF400613046FEF7AF
:101B8C008FFC0E4F6423012229463846FFF7ACF92F
:101B9C006423224602A93846FFF78AFB01224FF440
:101BAC0000613046FEF77CFC013C06AB1C4414F88B
:101BBC00100C07B0F0BD00BF00040240A4000020D0
:101BCC0070B504460D4616460121FFF7CDFF46B908
:101BDC000121A94020EA0101C9B22046FFF744FFC8
:101BEC0070BD0121A9400143C9B2F6E710B50F4CF5
:101BFC0000224FF480612046FEF752FCE220FFF7F2
:101C0C0071FF70210720FFF72FFF012211460020E2
:101C1C00FFF7D6FF012200210846FFF7D1FF012272
:101C2C004FF480612046FEF73BFC10BD00040240DF
:101C3C0008B5FFF745FF5A210520FFF715FF0621D0
:101C4C000846FFF711FF08210020FFF70DFF3F2189
:101C5C000120FFF709FF3F210220FFF705FF4F216D
:101C6C000420FFF701FF20211120FFF7FDFE2021AA
:101C7C001220FFF7F9FE00211C20FFF7F5FEE220F1
:101C8C00FFF730FFE120FFF72DFF70210720FFF752
:101C9C00EBFEFFF7ABFF012008BD08B57021072054
:101CAC00FFF7E2FE012211460020FFF789FF002218
:101CBC0011461046FFF784FF08BD08B50121172017
:101CCC00FFF752FF00F0010008BD08B5FFF728FF31
:101CDC0010F0400F01D0012008BDFFF7EEFFB0FA65
:101CEC0080F04009F8E70000042800D0704708B5E0
:101CFC00FFF7EBFF10B1024B02221A7008BD00BFB8
:101D0C00A0000020F0B583B00746214C00224FF410
:101D1C0080612046FEF7C4FBFFF7BFFF02ADE12355
:101D2C0005F8013D00224FF400612046FEF7B8FB98
:101D3C00184E6423012229463046FFF7D5F80122BC
:101D4C004FF400612046FEF7ABFB00224FF400611C
:101D5C002046FEF7A5FBA0238DF807306423012253
:101D6C0029463046FFF7C0F8642320223946304616
:101D7C00FFF7BAF801224FF400612046FEF790FB02
:101D8C0001224FF480612046FEF78AFB03B0F0BDC0
:101D9C0000040240A4000020F0B583B0074602AC5A
:101DAC00612304F8013D104D00224FF400612846D8
:101DBC00FEF776FB0D4E6423012221463046FFF7D9
:101DCC0093F86423202239463046FFF771FA01223A
:101DDC004FF400612846FEF763FB40210720FFF714
:101DEC0043FE03B0F0BD00BF00040240A40000207D
:101DFC0010B50C460121FFF7B7FE204110F0010F82
:101E0C0001D0012010BD0020FCE7000070B582B0AD
:101E1C000E461546203002AC04F8010D00224FF49A
:101E2C0000611048FEF73CFB4FF47A730122214607
:101E3C000D48FFF759F800240AE04FF47A73012299
:101E4C0031190948FFF750F80A20FEF7E1F901347F
:101E5C00A542F2DC01224FF400610248FEF720FBA0
:101E6C0002B070BD00040240A400002008B5FFF7CA
:101E7C0057FE10F0200F04D110F0100F03D00020EB
:101E8C0000E0012008BDFF20FCE7000038B5054646
:101E9C00FEF76EF9074C4FF47A7382B2294620464E
:101EAC00FFF7F6FC4FF47A73022203492046FFF742
:101EBC00EFFC38BD380100203C2E000808B501218C
:101ECC000520FFF751FE5A285AD001210620FFF7B2
:101EDC004BFE062858D001210020FFF745FE0B28A9
:101EEC0056D001210846FFF73FFE3F2854D0012170
:101EFC000420FFF739FE4F2852D001211120FFF7A3
:101F0C0033FE202850D001211020FFF72DFEE728AA
:101F1C004ED002211020FFF727FEE7284CD00321DA
:101F2C001020FFF721FEE7284AD004211020FFF7EC
:101F3C001BFEE72848D005211020FFF715FEE728E7
:101F4C0046D001210B20FFF70FFE7E2844D0022142
:101F5C000B20FFF709FE7E2842D003210B20FFF750
:101F6C0003FE7E2840D004210B20FFF7FDFD7E28C8
:101F7C003ED005210B20FFF7F7FD7E283CD008BD95
:101F8C001F48FFF783FFA0E71E48FFF77FFFA2E77C
:101F9C001D48FFF77BFFA4E71C48FFF777FFA6E778
:101FAC001B48FFF773FFA8E71A48FFF76FFFAAE774
:101FBC001948FFF76BFFACE71848FFF767FFAEE770
:101FCC001748FFF763FFB0E71648FFF75FFFB2E76C
:101FDC001548FFF75BFFB4E71448FFF757FFB6E768
:101FEC001348FFF753FFB8E71248FFF74FFFBAE764
:101FFC001148FFF74BFFBCE71048FFF747FFBEE760
:10200C00402E00085C2E0008782E0008942E000844
:10201C00B02E0008D02E0008EC2E0008082F000867
:10202C00242F0008402F00085C2F0008782F000890
:10203C00982F0008B82F0008D82F0008F82F000898
:10204C0010B584B002460A49684600F0B9FA094C4A
:10205C004FF47A7382B269462046FFF719FC4FF4AD
:10206C007A73022204492046FFF712FC04B010BD1B
:10207C0018300008380100203C2E000870B594B0D0
:10208C00664B93E8030012908DF84C10083393E8DC
:10209C00030010908DF84410FEF798F8FFF7AEFC93
:1020AC00FFF766FC00F0CCF800F094F900F0DEF9D4
:1020BC005B48FFF738FA0820FEF704F9FFF7B8FD84
:1020CC00FFF7FCFE012205210020FFF779FD01221C
:1020DC0004210020FFF774FD052212A90A20FFF746
:1020EC0095FE052212A91020FFF790FE052210A9DB
:1020FC000B20FFF78BFE00254A4B1D7032E04FF48E
:10210C00FA70FEF785F80024002C55D0202200210F
:10211C00684600F04DFA8DF80050414B1B680022C8
:10212C005A626846FFF7EEFDFFF7A0FE0446FF2853
:10213C00FAD0FFF75BFD012C52D0002C54D13A4859
:10214C00FFF7A4FE374B01221A70354B1B68002297
:10215C005A620120FEF75CF8314B1B685B6AB3F5E1
:10216C007A7F45D82F4B1B78DBB2012BF1D0002B9B
:10217C00C5D0022BF6D108A8FFF70EFE01220621CE
:10218C000720FFF71DFD00211720FFF731FE002867
:10219C00F1D00120FEF73CF82448FFF777FE9DF8BC
:1021AC002000FFF74DFF9DF820307E2B2AD801250B
:1021BC0000231C4A13702DE01D4E01224021304695
:1021CC00FEF76EF90A20FEF723F800224021304674
:1021DC00FEF766F90A20FEF71BF80134E4B293E728
:1021EC001448FFF753FEADE71348FFF74FFEA9E77E
:1021FC001248FFF74BFE0A4B1A6800235362094A38
:10220C001370AFE70025D3E714AA1A44002102F893
:10221C00301C01331F2BF7DDA4E700BF082E00088C
:10222C00FC000020A00000203C3000088830000892
:10223C00000402401C3000085C30000868300008C4
:10224C0008B50D480D4B03604FF4827343600023B7
:10225C008360C360036143614FF400728261C361A8
:10226C000362436283620A23C362FEF705FE00B970
:10227C0008BDFFF7F7FBFBE7A4000020003001408E
:10228C0000B589B000230393049305930693079339
:10229C000268134B9A4202D009B05DF804FB03F5B7
:1022AC0084331A6A42F480521A621A6A02F4805217
:1022BC000192019ADA6942F00202DA61DB6903F0F9
:1022CC0002030293029B38230393022304930323F8
:1022DC0006930523079303A90248FEF717F8DBE7DB
:1022EC00003001400004024084B00F4B5A6A42F0A7
:1022FC0000425A625A6A02F000420192019A1A6A2A
:10230C0042F001021A621A6A02F001020292029A67
:10231C005A6A42F080525A625B6A03F0805303930C
:10232C00039B04B0704700BF003802407047FEE7C3
:10233C00FEE7FEE7FEE770477047704708B5FDF70C
:10234C0055FF08BD08B50420FEF7B0F808BD000025
:10235C0008B503460B4A126842B10A4A1068034496
:10236C006A46934206D8074A136008BD054A0649D7
:10237C001160F2E700F0F2F80C2303604FF0FF302D
:10238C00F3E700BF8C000020800100200E4B1A6880
:10239C0042F480721A6099680C4A0A409A601A6872
:1023AC0022F0885222F001121A601A6822F480225C
:1023BC001A609A6822F47D029A600022DA60044B5B
:1023CC004FF000629A607047003802400CC0FF88E2
:1023DC0000ED00E000B587B0002302930393049353
:1023EC0005930093019316484FF0804202604FF41E
:1023FC007A52426083604EF66022C2600361436190
:10240C00FFF778F898B906A94FF4805341F8103DBE
:10241C000B48FFF79AF868B90023009301936946BB
:10242C000748FFF7FFF840B907B05DF804FBFFF76A
:10243C0019FBE8E7FFF716FBEEE7FFF713FBF3E7F3
:10244C00FC0000200368B3F1804F00D0704782B0CD
:10245C0003F50E335A6A42F001025A625B6A03F0CA
:10246C0001030193019B02B07047000008B50A48B4
:10247C000A4B03604FF4E133436000238360C36075
:10248C0003610C2242618361C361FFF7D2F900B989
:10249C0008BDFFF7E7FAFBE73801002000380140E0
:1024AC0000B589B000230393049305930693079317
:1024BC000268154B9A4202D009B05DF804FB03F593
:1024CC0080331A6A42F480421A621A6A02F4804219
:1024DC000192019ADA6942F00102DA61DB6903F0D8
:1024EC0001030293029B4FF4C063039302230493F2
:1024FC0001230593032306930723079303A903489A
:10250C00FDF704FFD8E700BF00380140000002408F
:10251C00002103E00B4B5B58435004310A480B4B32
:10252C0042189A42F6D30A4A02E0002342F8043BCE
:10253C00084B9A42F9D3FFF729FF00F015F8FFF783
:10254C009DFD7047D4300008000000207000002072
:10255C00700000207C010020FEE70000014B186891
:10256C00704700BF0C00002070B500250C4E0D4CC0
:10257C00A41BA410A54209D100F034FC00250A4E7E
:10258C000A4CA41BA410A54205D170BD56F82530E9
:10259C0098470135EEE756F8253098470135F2E7B4
:1025AC00CC300008CC300008CC300008D03000080B
:1025BC0003460244934200D1704703F8011BF9E72C
:1025CC000EB46FF0004100B59CB01DAB02900690AC
:1025DC00079104910848094953F8042B05910068A8
:1025EC0002A9019300F066F80022029B1A701CB03D
:1025FC005DF804EB03B070470C0000200802FFFFED
:10260C002DE9F0478E6882469E420C4690469946CC
:10261C0037D88A8912F4906F31D002232568096962
:10262C006F1A656905EB450595FBF3F509F1010397
:10263C003B449D4238BF1D46530530D5294600F01A
:10264C0037FB064650B90C234FF0FF30CAF8003068
:10265C00A38943F04003A381BDE8F0873A46216982
:10266C0000F0B6FAA38923F4906343F08003A381AE
:10267C0026613E4426604E466561ED1BA5604E45C5
:10268C0000D94E4632464146206800F0ACFAA368A9
:10269C0000209B1BA36023681E442660DCE72A46AF
:1026AC0000F060FB06460028E2D12169504600F09C
:1026BC00B3FAC8E72DE9F04F1D468B899DB01F0674
:1026CC0080460C4616460FD50B696BB9402100F0BD
:1026DC00EFFA2060206128B90C23C8F800304FF0C5
:1026EC00FF30C8E0402363610023099320238DF859
:1026FC00293030234FF0010B8DF82A3003953746E3
:10270C003D4615F8013B0BB1252B3ED1B7EB060A24
:10271C000BD05346324621464046FFF771FF01303D
:10272C0000F0A480099B534409933B78002B00F0E4
:10273C009D8000234FF0FF32CDE9052304930793CE
:10274C008DF853301A932F46052217F8011B504869
:10275C0000F030FA049BD0B9D90644BF20228DF882
:10276C0053201A0744BF2B228DF853202A782A2A8B
:10277C0015D02F4600200A25079A394611F8013B3F
:10278C00303B092B4DD9B8B10FE02F46B8E7404A82
:10279C003D46801A0BFA00F018430490D3E7039AD5
:1027AC00111D12680391002A01DB079204E05242CA
:1027BC0043F00203079204933B782E2B0CD17B78C9
:1027CC002A2B33D1039B02371A1D1B680392002B53
:1027DC00B8BF4FF0FF3305932E4D032239782846AE
:1027EC0000F0E8F938B14023401B03FA00F0049BD9
:1027FC000137034304933978062227487E1C8DF851
:10280C00281000F0D7F9002838D0244B13BB039BB9
:10281C00073323F0070308330393099B4B440993B5
:10282C006DE705FB023201200F46A6E700230A25BF
:10283C00194601370593384610F8012B303A092A0E
:10284C0003D9002BC8D00591C6E705FB0121012354
:10285C000746F0E703AB00932246114B04A9404610
:10286C00AFF30080B0F1FF3F8146D6D1A3895B0660
:10287C003FF535AF09981DB0BDE8F08F03AB009361
:10288C002246074B04A9404600F082F8EAE700BF55
:10289C00983000089E300008A230000800000000AC
:1028AC000D2600082DE9F04791461F468A680B69F2
:1028BC0006469342B8BF1346C9F8003091F843203E
:1028CC000C46DDF8208012B10133C9F800302368C2
:1028DC00990642BFD9F800300233C9F80030256898
:1028EC0015F0060507D104F1190AE368D9F80020A0
:1028FC009B1AAB4229DC94F843302268003318BF92
:10290C00012392062ED404F1430239463046C047C7
:10291C00013021D02368E56803F00603042B18BFAF
:10292C000025D9F800204FF0000908BFAD1AA368A4
:10293C00226908BF25EAE5759342C4BF9B1AED18BE
:10294C001A344D451AD1002008E00123524639466D
:10295C003046C047013003D14FF0FF30BDE8F0875F
:10296C000135C2E73020E11881F843005A1C94F875
:10297C0045102244023382F84310C4E70123224657
:10298C0039463046C0470130E6D009F10109D8E795
:10299C002DE9F04301F1430C0C46097E85B06E29FC
:1029AC001746064698460C9A00F0B38022D8632945
:1029BC0036D00AD8002900F0B980582900F083805D
:1029CC0004F1420584F8421032E0642901D06929EF
:1029DC00F6D120681368050603F104012AD51B689B
:1029EC001160002B03DA2D225B4284F843206F48E0
:1029FC000A2239E0732900F09D8008D86F2920D075
:102A0C007029DDD1236843F02003236003E075298E
:102A1C0017D07829D4D17823654884F8453055E00F
:102A2C00136804F14205191D1B68116084F84230CB
:102A3C0001238CE01B6810F0400F116018BF1BB213
:102A4C00CFE713682568181D1060280601D51B6890
:102A5C0002E06806FBD51B886F2914BF0A220822E6
:102A6C005248002184F843106568002DA560C0F21F
:102A7C009580216821F004012160002B3DD1002DAF
:102A8C0040F08E806546082A0BD12368DB0708D5F9
:102A9C00236962689A42DEBF302305F8013C05F1D8
:102AAC00FF35ACEB05032361CDF800803B4603AA50
:102ABC0021463046FFF7F6FE01304DD14FF0FF3086
:102ACC0005B0BDE8F083394884F8451013682168D7
:102ADC001D1D1B6815600A060BD5CA0744BF41F0C3
:102AEC00200121601BB9226822F0200222601022F2
:102AFC00B7E74D0648BF9BB2EFE76546B3FBF2F173
:102B0C0002FB1133C35C05F8013D0B460029F5D1DE
:102B1C00B9E713682568181D6169106028061B68E1
:102B2C0001D5196002E06A06FBD5198000236546C1
:102B3C002361B9E71368191D11601D6862680021D3
:102B4C00284600F037F808B1401B606063682361C9
:102B5C00002384F84330A7E723692A4639463046D8
:102B6C00C0470130AAD023689B0713D4E068039BAD
:102B7C009842B8BF1846A3E701234A463946304667
:102B8C00C04701309AD00135E368039A9B1AAB42D7
:102B9C00F2DCEBE7002504F11909F5E7002BACD1C9
:102BAC00037804F1420584F842306CE7A930000840
:102BBC00BA30000810B5C9B202449042034601D1A4
:102BCC00002303E01C7801308C42F6D1184610BD6E
:102BDC0010B5431E0A44914200D110BD11F8014BAF
:102BEC0003F8014FF7E7884210B501EB020307D851
:102BFC00421E99420AD011F8014B02F8014FF8E736
:102C0C008342F5D98118D21AD34200D110BD13F8E2
:102C1C00014D01F8014DF7E738B50546002943D0C1
:102C2C0051F8043C0C1F002BB8BFE41800F0D0F88E
:102C3C001E4A1368104633B9636014602846BDE819
:102C4C00384000F0C6B8A3420BD9216862189342F1
:102C5C0001BF1A685B685218226063600460EDE77C
:102C6C0013465A680AB1A242FAD919685818A042F8
:102C7C000BD120680144581882421960DED11068CB
:102C8C005268014419605A60D8E702D90C232B60B2
:102C9C00D4E7206821188A4201BF116852680918CC
:102CAC00216062605C60C9E738BD00BF9400002001
:102CBC0070B5CD1C25F0030508350C2D38BF0C253F
:102CCC00002D064601DBA94203D90C2333600020FA
:102CDC0070BD00F07DF8214A1468214691B9204C52
:102CEC0023681BB9304600F063F820602946304653
:102CFC0000F05EF8431C24D10C233046336000F006
:102D0C0068F8E4E70B685B1B18D40B2B0FD90B602E
:102D1C00CC18CD50304600F05CF804F10B00231DAC
:102D2C0020F00700C31AD3D05A42E250D0E74B68C8
:102D3C008C4216BF636013600C46EBE70C46496887
:102D4C00CCE7C41C24F00304A04205D0211A304661
:102D5C0000F02EF80130CFD02560DBE79400002086
:102D6C0098000020F8B5074614460E4621B9BDE878
:102D7C00F8401146FFF79CBF22B9FFF74DFF2546DF
:102D8C002846F8BD00F026F8A0420FD2214638465E
:102D9C00FFF78EFF05460028F2D031462246FFF79A
:102DAC0017FF31463846FFF737FFE9E73546E7E7C7
:102DBC0038B50023054C054608462360FFF7C8FAD2
:102DCC00431C02D1236803B12B6038BD780100206D
:102DDC007047704751F8043C181F002BBCBF0B58B0
:102DEC00C0187047F8B500BFF8BC08BC9E467047C9
:0C2DFC00F8B500BFF8BC08BC9E4670474C
:102E0800E7E7E7E7E70000007E7E7E7E7E000000C1
:102E1800030406080C101820300000000000000011
:102E28000000000001020304060708090000000072
:102E3800010203040D0A0000312E52465F43482068
:102E4800706F707261776E6120776172746F7363EF
:102E580000000000322E52465F53455455502070F2
:102E68006F707261776E6120776172746F7363003F
:102E7800332E434F4E46494720706F707261776E0C
:102E88006120776172746F7363000000342E454EC1
:102E98005F414120706F707261776E612077617257
:102EA800746F736300000000352E53455455505F0E
:102EB8005245545220706F707261776E612077614D
:102EC80072746F7363000000362E52585F50575F5C
:102ED800503020706F707261776E61207761727404
:102EE8006F73630054585F414444525B305D2070F7
:102EF8006F707261776E6120776172746F736300AF
:102F080054585F414444525B315D20706F70726168
:102F1800776E6120776172746F73630054585F41F4
:102F28004444525B325D20706F707261776E61202D
:102F3800776172746F73630054585F414444525B05
:102F4800335D20706F707261776E61207761727483
:102F58006F73630054585F414444525B345D207082
:102F68006F707261776E6120776172746F7363003E
:102F780052585F414444525F50315B305D20706F5E
:102F8800707261776E6120776172746F736300008D
:102F980052585F414444525F50315B315D20706F3D
:102FA800707261776E6120776172746F736300006D
:102FB80052585F414444525F50315B325D20706F1C
:102FC800707261776E6120776172746F736300004D
:102FD80052585F414444525F50315B335D20706FFB
:102FE800707261776E6120776172746F736300002D
:102FF80052585F414444525F50315B345D20706FDA
:10300800707261776E6120776172746F736300000C
:103018002564000041434B2C20536C617665207277
:103028006563656976656420636F6D6D616E640ABA
:103038000D0000004E4F41434B2C204C6F73742001
:1030480041434B2066726F6D20536C6176652E0A82
:103058000D00000053454E44494E470A0D0000003C
:103068004E6F20726573706F6E736520666F722085
:103078006D6F7265207468616E2031730A0D0000EF
:1030880054656D70657261747572653A0000000070
:10309800232D302B2000686C4C0065666745464739
:1030A80000303132333435363738394142434445BC
:1030B800460030313233343536373839616263642B
:0430C8006566000039
:0430CC006101000896
:0430D0003D010008B6
:1030D400010000001000000068FF1F001000002025
:1030E40000000000000000000000000000000000DC
:1030F40000000000000000000000000000000000CC
:1031040000000000000000000000000000000000BB
:1031140000000000000000000000000000000000AB
:10312400000000000000000000000000000000009B
:10313400000000000000000000000000000000008B
:040000050800251DAD
:00000001FF
